{"abi":[{"type":"function","name":"cancel","inputs":[{"name":"swapId","type":"bytes32","internalType":"bytes32"}],"outputs":[],"stateMutability":"nonpayable"},{"type":"function","name":"claim","inputs":[{"name":"swapId","type":"bytes32","internalType":"bytes32"},{"name":"preimage","type":"bytes32","internalType":"bytes32"}],"outputs":[],"stateMutability":"nonpayable"},{"type":"function","name":"getSwap","inputs":[{"name":"swapId","type":"bytes32","internalType":"bytes32"}],"outputs":[{"name":"maker","type":"address","internalType":"address"},{"name":"taker","type":"address","internalType":"address"},{"name":"token","type":"address","internalType":"address"},{"name":"amount","type":"uint256","internalType":"uint256"},{"name":"hashlock","type":"bytes32","internalType":"bytes32"},{"name":"claimed","type":"bool","internalType":"bool"},{"name":"cancelled","type":"bool","internalType":"bool"},{"name":"withdrawalTime","type":"uint256","internalType":"uint256"},{"name":"publicWithdrawalTime","type":"uint256","internalType":"uint256"},{"name":"cancellationTime","type":"uint256","internalType":"uint256"}],"stateMutability":"view"},{"type":"function","name":"lock","inputs":[{"name":"swapId","type":"bytes32","internalType":"bytes32"},{"name":"maker","type":"address","internalType":"address"},{"name":"taker","type":"address","internalType":"address"},{"name":"token","type":"address","internalType":"address"},{"name":"amount","type":"uint256","internalType":"uint256"},{"name":"hashlock","type":"bytes32","internalType":"bytes32"},{"name":"withdrawalTime","type":"uint256","internalType":"uint256"},{"name":"publicWithdrawalTime","type":"uint256","internalType":"uint256"},{"name":"cancellationTime","type":"uint256","internalType":"uint256"}],"outputs":[],"stateMutability":"nonpayable"},{"type":"function","name":"swaps","inputs":[{"name":"","type":"bytes32","internalType":"bytes32"}],"outputs":[{"name":"maker","type":"address","internalType":"address"},{"name":"taker","type":"address","internalType":"address"},{"name":"token","type":"address","internalType":"contract IERC20"},{"name":"amount","type":"uint256","internalType":"uint256"},{"name":"hashlock","type":"bytes32","internalType":"bytes32"},{"name":"claimed","type":"bool","internalType":"bool"},{"name":"cancelled","type":"bool","internalType":"bool"},{"name":"withdrawalTime","type":"uint256","internalType":"uint256"},{"name":"publicWithdrawalTime","type":"uint256","internalType":"uint256"},{"name":"cancellationTime","type":"uint256","internalType":"uint256"}],"stateMutability":"view"},{"type":"event","name":"Cancelled","inputs":[{"name":"swapId","type":"bytes32","indexed":true,"internalType":"bytes32"},{"name":"caller","type":"address","indexed":false,"internalType":"address"}],"anonymous":false},{"type":"event","name":"Claimed","inputs":[{"name":"swapId","type":"bytes32","indexed":true,"internalType":"bytes32"},{"name":"claimer","type":"address","indexed":false,"internalType":"address"},{"name":"preimage","type":"bytes32","indexed":false,"internalType":"bytes32"}],"anonymous":false},{"type":"event","name":"Locked","inputs":[{"name":"swapId","type":"bytes32","indexed":true,"internalType":"bytes32"},{"name":"maker","type":"address","indexed":false,"internalType":"address"},{"name":"taker","type":"address","indexed":false,"internalType":"address"},{"name":"token","type":"address","indexed":false,"internalType":"address"},{"name":"amount","type":"uint256","indexed":false,"internalType":"uint256"},{"name":"hashlock","type":"bytes32","indexed":false,"internalType":"bytes32"},{"name":"withdrawalTime","type":"uint256","indexed":false,"internalType":"uint256"},{"name":"publicWithdrawalTime","type":"uint256","indexed":false,"internalType":"uint256"},{"name":"cancellationTime","type":"uint256","indexed":false,"internalType":"uint256"}],"anonymous":false},{"type":"error","name":"AddressEmptyCode","inputs":[{"name":"target","type":"address","internalType":"address"}]},{"type":"error","name":"FailedCall","inputs":[]},{"type":"error","name":"InsufficientBalance","inputs":[{"name":"balance","type":"uint256","internalType":"uint256"},{"name":"needed","type":"uint256","internalType":"uint256"}]},{"type":"error","name":"SafeERC20FailedOperation","inputs":[{"name":"token","type":"address","internalType":"address"}]}],"bytecode":{"object":"0x6080806040523461001657610e0b908161001b8239f35b5f80fdfe6080806040526004361015610012575f80fd5b5f3560e01c908163102b6b131461067d575080633da0e66e1461005357806384cc9dfb14610326578063c4d252f5146101235763eb84e7f214610053575f80fd5b3461011f5760207ffffffffffffffffffffffffffffffffffffffffffffffffffffffffffffffffc36011261011f576004355f525f60205261014060405f2073ffffffffffffffffffffffffffffffffffffffff8082541691816001820154169160028201541660ff600383015460048401546005850154916006860154946008600788015497015497604051998a5260208a0152604089015260608801526080870152818116151560a087015260081c16151560c085015260e0840152610100830152610120820152f35b5f80fd5b3461011f576020807ffffffffffffffffffffffffffffffffffffffffffffffffffffffffffffffffc36011261011f5760043590815f525f815260405f20600881015442106102c85773ffffffffffffffffffffffffffffffffffffffff806001830154169081330361026a5760058301805460ff8160081c1661020c577fffffffffffffffffffffffffffffffffffffffffffffffffffffffffffff00ff1661010017905560028301546003909301547f37f7fee84bd656bac1447df96e3014d8a7e8352e960e827b202efad2f908ecd3949361020393919216610b8a565b604051338152a2005b606486604051907f08c379a00000000000000000000000000000000000000000000000000000000082526004820152601060248201527f616c726561647920726566756e646564000000000000000000000000000000006044820152fd5b606484604051907f08c379a00000000000000000000000000000000000000000000000000000000082526004820152601560248201527f6f6e6c792074616b65722063616e2063616e63656c00000000000000000000006044820152fd5b606482604051907f08c379a00000000000000000000000000000000000000000000000000000000082526004820152601360248201527f746f6f206561726c7920746f2063616e63656c000000000000000000000000006044820152fd5b3461011f5760407ffffffffffffffffffffffffffffffffffffffffffffffffffffffffffffffffc36011261011f5760043560248035825f526020915f835260405f2090600882015442101561062057600682015442106105c35760078201544210610544575b60405184810190848252858152604081019181831067ffffffffffffffff8411176105185782604052815190206004850154036104be575050600582019081549060ff821661046157507fd0a9ea8d3e707f26a4a7cc65857f11a20ed3152608c9a8548b6dd583e7d96b4e94926040949260017fffffffffffffffffffffffffffffffffffffffffffffffffffffffffffffff00610455941617905573ffffffffffffffffffffffffffffffffffffffff906003826002830154169282541691015491610b8a565b825191338352820152a2005b85600f606492604051927f08c379a000000000000000000000000000000000000000000000000000000000845260048401528201527f616c726561647920636c61696d656400000000000000000000000000000000006044820152fd5b907f696e76616c696420707265696d616765000000000000000000000000000000006084606493887f08c379a000000000000000000000000000000000000000000000000000000000855260448201526010858201520152fd5b837f4e487b71000000000000000000000000000000000000000000000000000000005f5260416004525ffd5b73ffffffffffffffffffffffffffffffffffffffff60018301541633031561038d5783601c606492604051927f08c379a000000000000000000000000000000000000000000000000000000000845260048401528201527f6f6e6c792074616b65722063616e207072697661746520636c61696d000000006044820152fd5b836018606492604051927f08c379a000000000000000000000000000000000000000000000000000000000845260048401528201527f746f6f206561726c7920666f72207769746864726177616c00000000000000006044820152fd5b83601e606492604051927f08c379a000000000000000000000000000000000000000000000000000000000845260048401528201527f746f6f206c6174652c2063616e63656c6c6174696f6e207374617274656400006044820152fd5b3461011f576101207ffffffffffffffffffffffffffffffffffffffffffffffffffffffffffffffffc36011261011f5760249081359073ffffffffffffffffffffffffffffffffffffffff821680920361011f5760443573ffffffffffffffffffffffffffffffffffffffff8116810361011f57606480359273ffffffffffffffffffffffffffffffffffffffff8416840361011f576004355f525f60205273ffffffffffffffffffffffffffffffffffffffff60405f205416610acd575083151580610aae575b15610a5357608435156109f85761076160e43560c43510610b25565b6107716101043560e43510610b25565b604051907f23b872dd000000000000000000000000000000000000000000000000000000006020830152338683015230604483015260843581830152815260a0810167ffffffffffffffff91808210838311176109cc576107eb9160405273ffffffffffffffffffffffffffffffffffffffff8516610c2c565b604051946101408601918211868310176109a157509073ffffffffffffffffffffffffffffffffffffffff9394849260405285815282821660208201528284166040820152608435606082015260a43560808201525f60a08201525f60c082015260c43560e082015260e435610100820152600861012082016101043581526004355f525f60205261010060405f2093868151167fffffffffffffffffffffffff000000000000000000000000000000000000000090818754161786556001860188602084015116828254161790556002860190886040840151169082541617905560608101516003860155608081015160048601556005850160a0820151151581547fffffffffffffffffffffffffffffffffffffffffffffffffffffffffffff000060ff61ff0060c087015115158a1b16931691161717905560e081015160068601550151600784015551910155604051948552166020840152166040820152608435606082015260a435608082015260c43560a082015260e43560c08201526101043560e08201527f5233c980801671ce50bc20b08dbfced4386f15c6db7a825d7ab1311d560510e561010060043592a2005b7f4e487b71000000000000000000000000000000000000000000000000000000005f5260416004525ffd5b867f4e487b71000000000000000000000000000000000000000000000000000000005f5260416004525ffd5b6040517f08c379a000000000000000000000000000000000000000000000000000000000815260206004820152600b818701527f7a65726f20616d6f756e740000000000000000000000000000000000000000006044820152fd5b6040517f08c379a0000000000000000000000000000000000000000000000000000000008152602060048201526010818701527f7a65726f206d616b65722f74616b6572000000000000000000000000000000006044820152fd5b5073ffffffffffffffffffffffffffffffffffffffff82161515610745565b600b867f08c379a0000000000000000000000000000000000000000000000000000000008352602060048401528201527f73776170206578697374730000000000000000000000000000000000000000006044820152fd5b15610b2c57565b60646040517f08c379a000000000000000000000000000000000000000000000000000000000815260206004820152601260248201527f696e76616c69642074696d65206f7264657200000000000000000000000000006044820152fd5b9173ffffffffffffffffffffffffffffffffffffffff604051927fa9059cbb000000000000000000000000000000000000000000000000000000006020850152166024830152604482015260448152608081019181831067ffffffffffffffff841117610bff57610bfd92604052610c2c565b565b7f4e487b71000000000000000000000000000000000000000000000000000000005f52604160045260245ffd5b5f73ffffffffffffffffffffffffffffffffffffffff8192169260208151910182855af13d15610d29573d67ffffffffffffffff91828211610bff577fffffffffffffffffffffffffffffffffffffffffffffffffffffffffffffffe09160405192603f81601f840116011683019383851090851117610bff57610cbe936040528252815f60203d92013e5b83610d35565b8051908115159182610d05575b5050610cd45750565b602490604051907f5274afe70000000000000000000000000000000000000000000000000000000082526004820152fd5b819250906020918101031261011f576020015180159081150361011f575f80610ccb565b610cbe90606090610cb8565b90610d745750805115610d4a57805190602001fd5b60046040517fd6bda275000000000000000000000000000000000000000000000000000000008152fd5b81511580610dcc575b610d85575090565b60249073ffffffffffffffffffffffffffffffffffffffff604051917f9996b315000000000000000000000000000000000000000000000000000000008352166004820152fd5b50803b15610d7d56fea2646970667358221220b9212b8d99ad3a36225f1c37a9db00093d7cb4b1a8f75b44251a37dafb0e319264736f6c63430008170033","linkReferences":{}},"methodIdentifiers":{"cancel(bytes32)":"c4d252f5","claim(bytes32,bytes32)":"84cc9dfb","getSwap(bytes32)":"3da0e66e","lock(bytes32,address,address,address,uint256,bytes32,uint256,uint256,uint256)":"102b6b13","swaps(bytes32)":"eb84e7f2"},"id":8}