{"abi":[{"type":"constructor","inputs":[{"name":"factory","type":"address","internalType":"contract IEscrowFactory"},{"name":"lop","type":"address","internalType":"contract IOrderMixin"},{"name":"initialOwner","type":"address","internalType":"address"}],"stateMutability":"nonpayable"},{"type":"receive","stateMutability":"payable"},{"type":"function","name":"arbitraryCalls","inputs":[{"name":"targets","type":"address[]","internalType":"address[]"},{"name":"arguments","type":"bytes[]","internalType":"bytes[]"}],"outputs":[],"stateMutability":"nonpayable"},{"type":"function","name":"cancel","inputs":[{"name":"escrow","type":"address","internalType":"contract IEscrow"},{"name":"immutables","type":"tuple","internalType":"struct IBaseEscrow.Immutables","components":[{"name":"orderHash","type":"bytes32","internalType":"bytes32"},{"name":"hashlock","type":"bytes32","internalType":"bytes32"},{"name":"maker","type":"uint256","internalType":"Address"},{"name":"taker","type":"uint256","internalType":"Address"},{"name":"token","type":"uint256","internalType":"Address"},{"name":"amount","type":"uint256","internalType":"uint256"},{"name":"safetyDeposit","type":"uint256","internalType":"uint256"},{"name":"timelocks","type":"uint256","internalType":"Timelocks"}]}],"outputs":[],"stateMutability":"nonpayable"},{"type":"function","name":"deployDst","inputs":[{"name":"dstImmutables","type":"tuple","internalType":"struct IBaseEscrow.Immutables","components":[{"name":"orderHash","type":"bytes32","internalType":"bytes32"},{"name":"hashlock","type":"bytes32","internalType":"bytes32"},{"name":"maker","type":"uint256","internalType":"Address"},{"name":"taker","type":"uint256","internalType":"Address"},{"name":"token","type":"uint256","internalType":"Address"},{"name":"amount","type":"uint256","internalType":"uint256"},{"name":"safetyDeposit","type":"uint256","internalType":"uint256"},{"name":"timelocks","type":"uint256","internalType":"Timelocks"}]},{"name":"srcCancellationTimestamp","type":"uint256","internalType":"uint256"}],"outputs":[],"stateMutability":"payable"},{"type":"function","name":"deploySrc","inputs":[{"name":"immutables","type":"tuple","internalType":"struct IBaseEscrow.Immutables","components":[{"name":"orderHash","type":"bytes32","internalType":"bytes32"},{"name":"hashlock","type":"bytes32","internalType":"bytes32"},{"name":"maker","type":"uint256","internalType":"Address"},{"name":"taker","type":"uint256","internalType":"Address"},{"name":"token","type":"uint256","internalType":"Address"},{"name":"amount","type":"uint256","internalType":"uint256"},{"name":"safetyDeposit","type":"uint256","internalType":"uint256"},{"name":"timelocks","type":"uint256","internalType":"Timelocks"}]},{"name":"order","type":"tuple","internalType":"struct IOrderMixin.Order","components":[{"name":"salt","type":"uint256","internalType":"uint256"},{"name":"maker","type":"uint256","internalType":"Address"},{"name":"receiver","type":"uint256","internalType":"Address"},{"name":"makerAsset","type":"uint256","internalType":"Address"},{"name":"takerAsset","type":"uint256","internalType":"Address"},{"name":"makingAmount","type":"uint256","internalType":"uint256"},{"name":"takingAmount","type":"uint256","internalType":"uint256"},{"name":"makerTraits","type":"uint256","internalType":"MakerTraits"}]},{"name":"r","type":"bytes32","internalType":"bytes32"},{"name":"vs","type":"bytes32","internalType":"bytes32"},{"name":"amount","type":"uint256","internalType":"uint256"},{"name":"takerTraits","type":"uint256","internalType":"TakerTraits"},{"name":"args","type":"bytes","internalType":"bytes"}],"outputs":[],"stateMutability":"payable"},{"type":"function","name":"owner","inputs":[],"outputs":[{"name":"","type":"address","internalType":"address"}],"stateMutability":"view"},{"type":"function","name":"renounceOwnership","inputs":[],"outputs":[],"stateMutability":"nonpayable"},{"type":"function","name":"transferOwnership","inputs":[{"name":"newOwner","type":"address","internalType":"address"}],"outputs":[],"stateMutability":"nonpayable"},{"type":"function","name":"withdraw","inputs":[{"name":"escrow","type":"address","internalType":"contract IEscrow"},{"name":"secret","type":"bytes32","internalType":"bytes32"},{"name":"immutables","type":"tuple","internalType":"struct IBaseEscrow.Immutables","components":[{"name":"orderHash","type":"bytes32","internalType":"bytes32"},{"name":"hashlock","type":"bytes32","internalType":"bytes32"},{"name":"maker","type":"uint256","internalType":"Address"},{"name":"taker","type":"uint256","internalType":"Address"},{"name":"token","type":"uint256","internalType":"Address"},{"name":"amount","type":"uint256","internalType":"uint256"},{"name":"safetyDeposit","type":"uint256","internalType":"uint256"},{"name":"timelocks","type":"uint256","internalType":"Timelocks"}]}],"outputs":[],"stateMutability":"nonpayable"},{"type":"event","name":"OwnershipTransferred","inputs":[{"name":"previousOwner","type":"address","indexed":true,"internalType":"address"},{"name":"newOwner","type":"address","indexed":true,"internalType":"address"}],"anonymous":false},{"type":"error","name":"InvalidLength","inputs":[]},{"type":"error","name":"LengthMismatch","inputs":[]},{"type":"error","name":"NativeTokenSendingFailure","inputs":[]},{"type":"error","name":"OwnableInvalidOwner","inputs":[{"name":"owner","type":"address","internalType":"address"}]},{"type":"error","name":"OwnableUnauthorizedAccount","inputs":[{"name":"account","type":"address","internalType":"address"}]}],"bytecode":{"object":"0x60c0346100f557601f610f1f38819003918201601f19168301916001600160401b038311848410176100f9578084926060946040528339810103126100f55780516001600160a01b03919082811681036100f55760208201519183831683036100f557604001518381168091036100f55780156100dd575f80546001600160a01b03198116831782556040519516907f8be0079c531659141344cd1fd0a4f28419497f9722a3daafe3b4186f6b6457e09080a360805260a052610e11908161010e823960805181818161030f015261085a015260a051816104bc0152f35b604051631e4fbdf760e01b81525f6004820152602490fd5b5f80fd5b634e487b7160e01b5f52604160045260245ffdfe60406080815260048036101561001e575b5050361561001c575f80fd5b005b5f915f3560e01c80631f3177ba14610ad15780632c3c9a37146109ae57838163318b0562146107f957508063715018a61461075d5780638da5cb5b1461070c57838163a4fc705a146105e757508063ca218276146101705763f2fde38b146100865750610010565b3461016c5760207ffffffffffffffffffffffffffffffffffffffffffffffffffffffffffffffffc36011261016c5781359173ffffffffffffffffffffffffffffffffffffffff91828416809403610168576100e0610d8b565b83156101395750505f54827fffffffffffffffffffffffff00000000000000000000000000000000000000008216175f55167f8be0079c531659141344cd1fd0a4f28419497f9722a3daafe3b4186f6b6457e05f80a380f35b908460249251917f1e4fbdf7000000000000000000000000000000000000000000000000000000008352820152fd5b8480fd5b8280fd5b50907ffffffffffffffffffffffffffffffffffffffffffffffffffffffffffffffffc3601916102a083126105e3576101008093126105e357827ffffffffffffffffffffffffffffffffffffffffffffffffffffffffffffffefc3601126105e3576102843567ffffffffffffffff928382116105df57366023830112156105df5781810135948486116105db57602494368688860101116105d757610214610d8b565b8451918201908111828210176105ac57908493929184528135815260209081810197873589528582019460443586526060998a8401606435815260808501608435815260a086019160a435835260c087019960c4358b528d60e08901954260e01b7bffffffffffffffffffffffffffffffffffffffffffffffffffffffff60e4351617875273ffffffffffffffffffffffffffffffffffffffff9d51997ffb6bd47e000000000000000000000000000000000000000000000000000000008b52518c8b015251908901525160448801525160648701525160848601525160a4850152865160c48501525160e48401528a61010496858589818c7f0000000000000000000000000000000000000000000000000000000000000000165afa9485156105a2578295610566575b508180809251875af1610350610d2e565b501561053e57928895926103b360348c858f98966101a09e839d9b988f7fffffffffffffffffffffffffffffffffffffffff00000000000000000000000090519889961b1689860152018484013781018883820152036014810184520182610ced565b8851998a977ff497df750000000000000000000000000000000000000000000000000000000089526101a4948635908a0152610124908135908a0152610144803560448b015261016490813560648c015261018492833560848d0152873560a48d01526101c4988c60c48b359101528c60e46101e43591015261020435908d015261022435908c015261024435908b01527f08000000000000000000000000000000000000000000000000000000000000006102643517908a015288015280518093880152845b8381106105225750505090847fffffffffffffffffffffffffffffffffffffffffffffffffffffffffffffffe0601f84868585989786010152011681010301927f0000000000000000000000000000000000000000000000000000000000000000165af190811561051957506104ee578280f35b813d8311610512575b6105018183610ced565b8101031261050f575f808280f35b80fd5b503d6104f7565b513d85823e3d90fd5b8082018301518b82018601528b98508a97508c9550820161047a565b8488517f8a0332d5000000000000000000000000000000000000000000000000000000008152fd5b9094508581813d831161059b575b61057e8183610ced565b810103126105975751888116810361059757938161033f565b5080fd5b503d610574565b8a513d84823e3d90fd5b856041847f4e487b71000000000000000000000000000000000000000000000000000000005f52525ffd5b8780fd5b8680fd5b8580fd5b8380fd5b80848434610708576101207ffffffffffffffffffffffffffffffffffffffffffffffffffffffffffffffffc36011261070857610622610c89565b6101007fffffffffffffffffffffffffffffffffffffffffffffffffffffffffffffffdc3601126107035773ffffffffffffffffffffffffffffffffffffffff1691823b1561070357839082519384917f90d3252f0000000000000000000000000000000000000000000000000000000083526024359083015260443560248301526064356044830152608435606483015260a435608483015260c43560a483015260e43560c4830152818361010492833560e48401525af19081156106fa57506106ea5750f35b6106f390610cac565b61050f5780f35b513d84823e3d90fd5b505050fd5b5050fd5b83823461059757817ffffffffffffffffffffffffffffffffffffffffffffffffffffffffffffffffc3601126105975773ffffffffffffffffffffffffffffffffffffffff60209254169051908152f35b833461050f57807ffffffffffffffffffffffffffffffffffffffffffffffffffffffffffffffffc36011261050f57610794610d8b565b5f73ffffffffffffffffffffffffffffffffffffffff81547fffffffffffffffffffffffff000000000000000000000000000000000000000081168355167f8be0079c531659141344cd1fd0a4f28419497f9722a3daafe3b4186f6b6457e08280a380f35b8084847ffffffffffffffffffffffffffffffffffffffffffffffffffffffffffffffffc360161012081126107035761010013610708576101049161083c610d8b565b60843573ffffffffffffffffffffffffffffffffffffffff856020827f0000000000000000000000000000000000000000000000000000000000000000169260448751809481937f095ea7b3000000000000000000000000000000000000000000000000000000008352878a8401527fffffffffffffffffffffffffffffffffffffffffffffffffffffffffffffffff602484015288165af180156109a45761096c575b50803b156105df57859261012491855196879485937fdea024e4000000000000000000000000000000000000000000000000000000008552803590850152602435602485015260443560448501526064356064850152608484015260a43560a484015260c43560c484015260e43560e484015280359083015234905af19081156106fa57506106ea5750f35b6020813d60201161099c575b8161098560209383610ced565b810103126105db5751801515036105df57876108e0565b3d9150610978565b85513d89823e3d90fd5b5034610acd576101407ffffffffffffffffffffffffffffffffffffffffffffffffffffffffffffffffc360112610acd576109e7610c89565b6101007fffffffffffffffffffffffffffffffffffffffffffffffffffffffffffffffbc360112610acd5773ffffffffffffffffffffffffffffffffffffffff1691823b15610acd575f9082519384917f233057030000000000000000000000000000000000000000000000000000000083526024359083015260443560248301526064356044830152608435606483015260a435608483015260c43560a483015260e43560c4830152818361010492833560e4840152610124938435908401525af1908115610ac45750610aba575080f35b61001c9150610cac565b513d5f823e3d90fd5b5f80fd5b509034610acd57817ffffffffffffffffffffffffffffffffffffffffffffffffffffffffffffffffc360112610acd5767ffffffffffffffff8135818111610acd57610b209036908401610c58565b92602491602435848111610acd57610b3b9036908401610c58565b939092610b46610d8b565b848703610c31575f5b878110610b5857005b8060051b808501359073ffffffffffffffffffffffffffffffffffffffff82168203610acd5787831015610c06578601357fffffffffffffffffffffffffffffffffffffffffffffffffffffffffffffffe187360301811215610acd57860190813591898311610acd57602001908236038213610acd57825f80949381948f519384928337810182815203925af1610bee610d2e565b5015610bfc57600101610b4f565b88513d5f823e3d90fd5b846032857f4e487b71000000000000000000000000000000000000000000000000000000005f52525ffd5b87517fff633a38000000000000000000000000000000000000000000000000000000008152fd5b9181601f84011215610acd5782359167ffffffffffffffff8311610acd576020808501948460051b010111610acd57565b6004359073ffffffffffffffffffffffffffffffffffffffff82168203610acd57565b67ffffffffffffffff8111610cc057604052565b7f4e487b71000000000000000000000000000000000000000000000000000000005f52604160045260245ffd5b90601f7fffffffffffffffffffffffffffffffffffffffffffffffffffffffffffffffe0910116810190811067ffffffffffffffff821117610cc057604052565b3d15610d86573d9067ffffffffffffffff8211610cc05760405191610d7b60207fffffffffffffffffffffffffffffffffffffffffffffffffffffffffffffffe0601f8401160184610ced565b82523d5f602084013e565b606090565b73ffffffffffffffffffffffffffffffffffffffff5f54163303610dab57565b60246040517f118cdaa7000000000000000000000000000000000000000000000000000000008152336004820152fdfea2646970667358221220cf50549a7e7ce243ac461a71c6492a6a3234ad562c28c97381557aa6c2b58b3564736f6c63430008170033","linkReferences":{}},"methodIdentifiers":{"arbitraryCalls(address[],bytes[])":"1f3177ba","cancel(address,(bytes32,bytes32,uint256,uint256,uint256,uint256,uint256,uint256))":"a4fc705a","deployDst((bytes32,bytes32,uint256,uint256,uint256,uint256,uint256,uint256),uint256)":"318b0562","deploySrc((bytes32,bytes32,uint256,uint256,uint256,uint256,uint256,uint256),(uint256,uint256,uint256,uint256,uint256,uint256,uint256,uint256),bytes32,bytes32,uint256,uint256,bytes)":"ca218276","owner()":"8da5cb5b","renounceOwnership()":"715018a6","transferOwnership(address)":"f2fde38b","withdraw(address,bytes32,(bytes32,bytes32,uint256,uint256,uint256,uint256,uint256,uint256))":"2c3c9a37"},"id":14}