{"abi":[{"type":"function","name":"cancel","inputs":[{"name":"swapId","type":"bytes32","internalType":"bytes32"}],"outputs":[],"stateMutability":"nonpayable"},{"type":"function","name":"claim","inputs":[{"name":"swapId","type":"bytes32","internalType":"bytes32"},{"name":"preimage","type":"bytes32","internalType":"bytes32"}],"outputs":[],"stateMutability":"nonpayable"},{"type":"function","name":"getSwap","inputs":[{"name":"swapId","type":"bytes32","internalType":"bytes32"}],"outputs":[{"name":"maker","type":"address","internalType":"address"},{"name":"taker","type":"address","internalType":"address"},{"name":"token","type":"address","internalType":"address"},{"name":"amount","type":"uint256","internalType":"uint256"},{"name":"hashlock","type":"bytes32","internalType":"bytes32"},{"name":"claimed","type":"bool","internalType":"bool"},{"name":"cancelled","type":"bool","internalType":"bool"},{"name":"withdrawalTime","type":"uint256","internalType":"uint256"},{"name":"publicWithdrawalTime","type":"uint256","internalType":"uint256"},{"name":"cancellationTime","type":"uint256","internalType":"uint256"},{"name":"publicCancellationTime","type":"uint256","internalType":"uint256"}],"stateMutability":"view"},{"type":"function","name":"lock","inputs":[{"name":"swapId","type":"bytes32","internalType":"bytes32"},{"name":"maker","type":"address","internalType":"address"},{"name":"taker","type":"address","internalType":"address"},{"name":"token","type":"address","internalType":"address"},{"name":"amount","type":"uint256","internalType":"uint256"},{"name":"hashlock","type":"bytes32","internalType":"bytes32"},{"name":"withdrawalTime","type":"uint256","internalType":"uint256"},{"name":"publicWithdrawalTime","type":"uint256","internalType":"uint256"},{"name":"cancellationTime","type":"uint256","internalType":"uint256"},{"name":"publicCancellationTime","type":"uint256","internalType":"uint256"}],"outputs":[],"stateMutability":"nonpayable"},{"type":"function","name":"swaps","inputs":[{"name":"","type":"bytes32","internalType":"bytes32"}],"outputs":[{"name":"maker","type":"address","internalType":"address"},{"name":"taker","type":"address","internalType":"address"},{"name":"token","type":"address","internalType":"contract IERC20"},{"name":"amount","type":"uint256","internalType":"uint256"},{"name":"hashlock","type":"bytes32","internalType":"bytes32"},{"name":"claimed","type":"bool","internalType":"bool"},{"name":"cancelled","type":"bool","internalType":"bool"},{"name":"withdrawalTime","type":"uint256","internalType":"uint256"},{"name":"publicWithdrawalTime","type":"uint256","internalType":"uint256"},{"name":"cancellationTime","type":"uint256","internalType":"uint256"},{"name":"publicCancellationTime","type":"uint256","internalType":"uint256"}],"stateMutability":"view"},{"type":"event","name":"Cancelled","inputs":[{"name":"swapId","type":"bytes32","indexed":true,"internalType":"bytes32"},{"name":"caller","type":"address","indexed":false,"internalType":"address"}],"anonymous":false},{"type":"event","name":"Claimed","inputs":[{"name":"swapId","type":"bytes32","indexed":true,"internalType":"bytes32"},{"name":"claimer","type":"address","indexed":false,"internalType":"address"},{"name":"preimage","type":"bytes32","indexed":false,"internalType":"bytes32"}],"anonymous":false},{"type":"event","name":"Locked","inputs":[{"name":"swapId","type":"bytes32","indexed":true,"internalType":"bytes32"},{"name":"maker","type":"address","indexed":false,"internalType":"address"},{"name":"taker","type":"address","indexed":false,"internalType":"address"},{"name":"token","type":"address","indexed":false,"internalType":"address"},{"name":"amount","type":"uint256","indexed":false,"internalType":"uint256"},{"name":"hashlock","type":"bytes32","indexed":false,"internalType":"bytes32"},{"name":"withdrawalTime","type":"uint256","indexed":false,"internalType":"uint256"},{"name":"publicWithdrawalTime","type":"uint256","indexed":false,"internalType":"uint256"},{"name":"cancellationTime","type":"uint256","indexed":false,"internalType":"uint256"},{"name":"publicCancellationTime","type":"uint256","indexed":false,"internalType":"uint256"}],"anonymous":false},{"type":"error","name":"AddressEmptyCode","inputs":[{"name":"target","type":"address","internalType":"address"}]},{"type":"error","name":"FailedCall","inputs":[]},{"type":"error","name":"InsufficientBalance","inputs":[{"name":"balance","type":"uint256","internalType":"uint256"},{"name":"needed","type":"uint256","internalType":"uint256"}]},{"type":"error","name":"SafeERC20FailedOperation","inputs":[{"name":"token","type":"address","internalType":"address"}]}],"bytecode":{"object":"0x6080806040523461001657610e92908161001b8239f35b5f80fdfe6080806040526004361015610012575f80fd5b5f3560e01c9081632dad8346146106ac575080633da0e66e1461005357806384cc9dfb14610352578063c4d252f51461012f5763eb84e7f214610053575f80fd5b3461012b5760207ffffffffffffffffffffffffffffffffffffffffffffffffffffffffffffffffc36011261012b576004355f525f60205261016060405f2073ffffffffffffffffffffffffffffffffffffffff80825416918160018201541691600282015416600382015460ff600484015460058501549060068601549360078701549560096008890154980154986040519a8b5260208b015260408a015260608901526080880152818116151560a088015260081c16151560c086015260e0850152610100840152610120830152610140820152f35b5f80fd5b3461012b576020807ffffffffffffffffffffffffffffffffffffffffffffffffffffffffffffffffc36011261012b5760043590815f525f815260405f20600881015442106102f45760098101544210610277575b60058101805460ff8160081c16610219577fffffffffffffffffffffffffffffffffffffffffffffffffffffffffffff00ff16610100179055600281015481546003909201547f37f7fee84bd656bac1447df96e3014d8a7e8352e960e827b202efad2f908ecd393926102109273ffffffffffffffffffffffffffffffffffffffff9182169116610c11565b604051338152a2005b606484604051907f08c379a00000000000000000000000000000000000000000000000000000000082526004820152601060248201527f616c726561647920726566756e646564000000000000000000000000000000006044820152fd5b73ffffffffffffffffffffffffffffffffffffffff81541633031561018457606482604051907f08c379a00000000000000000000000000000000000000000000000000000000082526004820152601d60248201527f6f6e6c79206d616b65722063616e20707269766174652063616e63656c0000006044820152fd5b606482604051907f08c379a00000000000000000000000000000000000000000000000000000000082526004820152601360248201527f746f6f206561726c7920746f2063616e63656c000000000000000000000000006044820152fd5b3461012b5760407ffffffffffffffffffffffffffffffffffffffffffffffffffffffffffffffffc36011261012b5760043560248035825f526020915f835260405f2090600882015442101561064f57600682015442106105f25760078201544210610573575b60405184810190848252858152604081019181831067ffffffffffffffff8411176105475782604052815190206004850154036104ed575050600582019081549060ff821661049057507fd0a9ea8d3e707f26a4a7cc65857f11a20ed3152608c9a8548b6dd583e7d96b4e94926040949260017fffffffffffffffffffffffffffffffffffffffffffffffffffffffffffffff00610484941617905573ffffffffffffffffffffffffffffffffffffffff906003826002830154169260018301541691015491610c11565b825191338352820152a2005b85600f606492604051927f08c379a000000000000000000000000000000000000000000000000000000000845260048401528201527f616c726561647920636c61696d656400000000000000000000000000000000006044820152fd5b907f696e76616c696420707265696d616765000000000000000000000000000000006084606493887f08c379a000000000000000000000000000000000000000000000000000000000855260448201526010858201520152fd5b837f4e487b71000000000000000000000000000000000000000000000000000000005f5260416004525ffd5b73ffffffffffffffffffffffffffffffffffffffff6001830154163303156103b95783601c606492604051927f08c379a000000000000000000000000000000000000000000000000000000000845260048401528201527f6f6e6c792074616b65722063616e207072697661746520636c61696d000000006044820152fd5b836018606492604051927f08c379a000000000000000000000000000000000000000000000000000000000845260048401528201527f746f6f206561726c7920666f72207769746864726177616c00000000000000006044820152fd5b83601e606492604051927f08c379a000000000000000000000000000000000000000000000000000000000845260048401528201527f746f6f206c6174652c2063616e63656c6c6174696f6e207374617274656400006044820152fd5b3461012b576101407ffffffffffffffffffffffffffffffffffffffffffffffffffffffffffffffffc36011261012b5760249081359173ffffffffffffffffffffffffffffffffffffffff8316830361012b576044359073ffffffffffffffffffffffffffffffffffffffff8216820361012b5760649081359373ffffffffffffffffffffffffffffffffffffffff8516850361012b576004355f525f60205273ffffffffffffffffffffffffffffffffffffffff60405f205416610b53575073ffffffffffffffffffffffffffffffffffffffff8516151580610b34575b15610ad95760843515610a7e576107a760e43560c43510610bac565b6107b76101043560e43510610bac565b6107c8610124356101043510610bac565b6040517f23b872dd00000000000000000000000000000000000000000000000000000000602082015233828201523060448201526084358382015291825267ffffffffffffffff9160a0810183811182821017610a52576040526108429073ffffffffffffffffffffffffffffffffffffffff8616610cb3565b60405191826101608101109061016084011117610a27575073ffffffffffffffffffffffffffffffffffffffff929181610160859301604052828616815282821660208201528284166040820152608435606082015260a43560808201525f60a08201525f60c082015260c43560e082015260e43561010082015261010435610120820152610124356101408201526004355f525f602052600961014060405f2092858151167fffffffffffffffffffffffff000000000000000000000000000000000000000090818654161785556001850187602084015116828254161790556002850190876040840151169082541617905560608101516003850155608081015160048501556005840160a0820151151581547fffffffffffffffffffffffffffffffffffffffffffffffffffffffffffff000060ff61ff0060c0870151151560081b16931691161717905560e081015160068501556101008101516007850155610120810151600885015501519101558160405195168552166020840152166040820152608435606082015260a435608082015260c43560a082015260e43560c08201526101043560e0820152610124356101008201527fc252306b71ce8c9e8bae8404b9d52159bc8818c288199ada95a31f6c8280b1de61012060043592a2005b7f4e487b71000000000000000000000000000000000000000000000000000000005f5260416004525ffd5b827f4e487b71000000000000000000000000000000000000000000000000000000005f5260416004525ffd5b600b604051917f08c379a0000000000000000000000000000000000000000000000000000000008352602060048401528201527f7a65726f20616d6f756e740000000000000000000000000000000000000000006044820152fd5b6010604051917f08c379a0000000000000000000000000000000000000000000000000000000008352602060048401528201527f7a65726f206d616b65722f74616b6572000000000000000000000000000000006044820152fd5b5073ffffffffffffffffffffffffffffffffffffffff8316151561078b565b90600b907f08c379a0000000000000000000000000000000000000000000000000000000008352602060048401528201527f73776170206578697374730000000000000000000000000000000000000000006044820152fd5b15610bb357565b60646040517f08c379a000000000000000000000000000000000000000000000000000000000815260206004820152601260248201527f696e76616c69642074696d65206f7264657200000000000000000000000000006044820152fd5b9173ffffffffffffffffffffffffffffffffffffffff604051927fa9059cbb000000000000000000000000000000000000000000000000000000006020850152166024830152604482015260448152608081019181831067ffffffffffffffff841117610c8657610c8492604052610cb3565b565b7f4e487b71000000000000000000000000000000000000000000000000000000005f52604160045260245ffd5b5f73ffffffffffffffffffffffffffffffffffffffff8192169260208151910182855af13d15610db0573d67ffffffffffffffff91828211610c86577fffffffffffffffffffffffffffffffffffffffffffffffffffffffffffffffe09160405192603f81601f840116011683019383851090851117610c8657610d45936040528252815f60203d92013e5b83610dbc565b8051908115159182610d8c575b5050610d5b5750565b602490604051907f5274afe70000000000000000000000000000000000000000000000000000000082526004820152fd5b819250906020918101031261012b576020015180159081150361012b575f80610d52565b610d4590606090610d3f565b90610dfb5750805115610dd157805190602001fd5b60046040517fd6bda275000000000000000000000000000000000000000000000000000000008152fd5b81511580610e53575b610e0c575090565b60249073ffffffffffffffffffffffffffffffffffffffff604051917f9996b315000000000000000000000000000000000000000000000000000000008352166004820152fd5b50803b15610e0456fea26469706673582212203055d97e2aa6974cfb614ae7a01042fa4ad22424ca9e9cba9e6d4b2db186b5fe64736f6c63430008170033","linkReferences":{}},"methodIdentifiers":{"cancel(bytes32)":"c4d252f5","claim(bytes32,bytes32)":"84cc9dfb","getSwap(bytes32)":"3da0e66e","lock(bytes32,address,address,address,uint256,bytes32,uint256,uint256,uint256,uint256)":"2dad8346","swaps(bytes32)":"eb84e7f2"},"id":9}